:020000040000FA
:060000004DEF0EF01200AE
:020006001200E6
:060008000FEF00F01200F2
:02000E001200DE
:02001000AE013F
:0800180037EF00F012004FD891
:1000200000EE00F0140EE80403E3EECFE4FFFBD78C
:1000300000EE14F0070EE80403E3EECFE4FFFBD775
:10004000E6529EAA02D060EC0AF0E55200EE1AF0E9
:10005000070EE80403E3E5CFEDFFFBD700EE13F056
:10006000140EE80403E3E5CFEDFFFBD73DD027D81E
:1000700000EE00F0140EE80403E3EECFE4FFFBD73C
:1000800000EE14F0070EE80403E3EECFE4FFFBD725
:10009000E652F2A402D018EC0BF0E55200EE1AF092
:1000A000070EE80403E3E5CFEDFFFBD700EE13F006
:1000B000140EE80403E3E5CFEDFFFBD715D0DACF4C
:1000C000E4FFE2CFDAFFE9CFE4FFEACFE4FFF6CFC7
:1000D000E4FFF7CFE4FFF5CFE4FFF3CFE4FFF4CF85
:1000E000E4FFFACFE4FF1200E5CFFAFFE5CFF4FF1B
:1000F000E5CFF3FFE5CFF5FFE5CFF7FFE5CFF6FF5F
:0E010000E5CFEAFFE5CFE9FFE5CFDAFF11001A
:02010E000400EB
:10011000411E0000AE0100003D0000001000000084
:10012000F501000002000000931D00000001000026
:10013000AE0000000B1D000000020000880000005F
:10014000DCEC05F0FB0EDBCFF3FFDB06F350000920
:100150000AE02AEC06F0FA0E95EC06F0F3E1151C25
:10016000F1E1010E01D0000E0BEF06F0DCEC05F022
:100170003B0EE12402E3E168E652E16E010EDB6A28
:10018000020EDB6AF90EDBCFF6FFFA0EDBCFF7FFCC
:10019000FB0EDBCFF8FF0800F550DF6EDF5002E109
:1001A0002FEF05F0250EDF5C02E022EF05F0030ED5
:1001B000DB6A040EDB6A050EDB6A060EDB6A070EDD
:1001C000DB6A44EC05F02D0EDF5C0CE02B0EDF5CEF
:1001D00009E0200EDF5C06E0230EDF5C03E0300E5A
:1001E000DF5C1AE1DF50300A14E0130A0FE0030A63
:1001F0000AE00B0A05E0060AE4E1030EDB80E1D722
:10020000030EDB82DED7030EDB84DBD7030EDB8637
:10021000D8D7030EDB88D5D72A0EDF5C1BE140EC74
:1002200005F08EEC05F010E0030EDB80086809682D
:10023000130EDBCF0DF0140EDBCF0EF088EC0DF0BB
:10024000040E06C0DBFF03D0130E77EC05F044EC80
:1002500005F00BD0090EDB6AE5EC05F003E059EC84
:1002600006F0FAD7090E77EC05F0030EDBB0DB9849
:100270002E0EDF5C1BE144EC05F02A0EDF5C0BE187
:1002800040EC05F08EEC05F003E1130EC9EC05F02F
:1002900044EC05F00BD0090EDB6AE5EC05F003E059
:1002A00059EC06F0FAD7090EC9EC05F0680EDF5CD0
:1002B00007E144EC05F0680EDF5C1DE1030E18D089
:1002C000740EDF5C17E07A0EDF5C14E0480EDF5C32
:1002D00006E0540EDF5C03E05A0EDF5C02E1020E22
:1002E00007D06C0EDF5C03E06A0EDF5C04E1010EF8
:1002F0001CEC06F0C9DBDF506E0A01E17FD31E0A59
:1003000001E192D1200A01E18FD13F0A01E149D1F7
:100310001A0A01E146D10D0A01E143D1200A01E1A7
:1003200040D13A0A01E13DD1200A01E13AD1260A41
:1003300001E135D10D0A01E132D11A0A01E1D9D02A
:10034000200A4AE0300A1FE0460A0EE0250A01E0D2
:1003500083D3D950F90FE96EFF0EDA20EA6E010E51
:10036000EE5E000EEE5AEE5A2AEC06F0250EE66E10
:1003700095DB03E1151C01E169D326EC06F001E2EF
:100380006BD3DB2A69D3080EDB6A040EDB5001084D
:1003900006E2040EDB04EEEC05F0DB508BDB080E0E
:1003A000DB5009E0030EDB50010B05E172DB01E0DD
:1003B0004DD3080EDB6A64DBEFCFDFFF9EEC06F067
:1003C00003E1151C01E142D326EC06F001E3DB2A30
:1003D00060DB01E141D33AD3070EDB5002080FE1A5
:1003E0006AEC06F0030E31EC06F00E0EEECFDBFFEA
:1003F0000F0EEECFDBFF100EEECFDBFF20D0F70E9F
:10040000DBCF17F0F80EDBCF18F0020E175E000EF0
:10041000185AF70E17C0DBFFF80E18C0DBFF17C025
:10042000E9FF18C0EAFF21EC06F0166A0E0E14C0B0
:10043000DBFF0F0E15C0DBFF100E16C0DBFF0E0E2C
:10044000DBCFE6FF0F0EDBCFE6FF100EDBCFE6FFC4
:1004500063EC0DF0E552E552E552130E07C0DBFFE9
:10046000140E08C0DBFF060EDB5005E0130E65EC32
:1004700006F001E26ADB89EC06F002E2130E37DBDC
:100480004CEC06F006E0040E65EC06F002E2050E08
:100490002EDB030EDBB005D0FCDA01E0D7D2080E6C
:1004A000DB6A090EDB6A0E0EDBCFF6FF0F0EDBCF29
:1004B000F7FF100EDBCFF8FF0800F550DF6EDF50BE
:1004C00014E08FEC06F011E29EEC06F003E1151C3F
:1004D00001E1BCD2BBDB01E3DB2A090EDB2AD950E8
:1004E0000E0FE96E000ECBDBE7D7D3DA01E1B4D211
:1004F000ADD2C6DA110EEECFDBFF120EEDCFDBFF71
:10050000110EDBCFE6FF120EDBCFE6FF55EC0DF050
:10051000E552E552130EF3CFDBFF140EF4CFDBFFF1
:10052000060EDB5004E0130ED0DB01E20EDB89EC9B
:1005300006F002E2130EDBDAAFDB05E0040EC5DBEA
:1005400002E2050ED4DA030EDBB005D0A2DA01E038
:100550007DD2080EDB6A090EDB6A110EDBCFE9FFE4
:10056000120EDBCFEAFFEFCFDFFFDF5014E0D7DB67
:1005700012E2E4DB03E1151C01E168D267DB01E371
:10058000DB2A090EDB2A110EDB2ADBCFE9FF120E74
:10059000E8E3DB2AE6D77DDA01E15ED257D2030E2B
:1005A000DB8E070EDB0410E195DB040E5ADB0A0E2E
:1005B000EECFDBFF0B0EEECFDBFF0C0EEECFDBFF43
:1005C0000D0EEECFDBFF6CD0070EDB5003082CE1E5
:1005D000030EDBAE0DD0B2DA020E76DAEFCF14F0F6
:1005E000156A166A176A14AE39D01568166835D0C0
:1005F000F70EDBCF15F0F80EDBCF16F0020E155E0E
:10060000000E165AF70E15C0DBFFF80E16C0DBFF02
:1006100015C0E9FF16C0EAFFEFCF14F00A0E14C0B0
:10062000DBFF0B0EDB6A38D0070EDB50020809E156
:10063000030EDBAE04D059DB16AE10D00ED055DB66
:100640000DD0030EDBAE12D079DA020E3DDAF9DA04
:10065000166A176A15AE02D016681768E2DA0C0E31
:1006600016C0DBFF0D0E17C0DBFF1AD0F70EDBCF75
:1006700016F0F80EDBCF17F0020E165E000E175ABA
:10068000F70E16C0DBFFF80E17C0DBFF16C0E9FF40
:1006900017C0EAFFD6DAC5DA0C0EDB6A0D0EDB6A8C
:1006A000060EDB5005E1010EF36E050EF3CFDBFF06
:1006B000150EDB6A160EDB6AD950370F146E000E6A
:1006C000DA20156E390E14C0DBFF3A0E15C0DBFFC1
:1006D000380EDB6A080EDB6A0A0EAEDADF50780AE3
:1006E00012E0200A10E0280A0CE0200A0AE03F0A83
:1006F00006E00D0A02E0200A08E1020E05D0080E0D
:1007000003D0080EDF26100E97DA030EDBBE02D0F0
:10071000DB92DB94DB50800B24E08ADAD890030E66
:10072000EB50000A08E6000EEE5C000EEE58000EDC
:10073000EE58000EEE5815E213DA0B680C680D68DF
:100740000E681DEC0DF00A0E02C0DBFF0B0E03C09D
:10075000DBFF0C0E04C0DBFF0D0E05C0DBFF2D0E12
:1007600008D0030EDBA202D02B0E03D0DBA408D0EE
:10077000200EF36E170EF3CFDBFF150EDB2A02D02F
:10078000170EDB6A050EDB5003E1B7D901E189D012
:10079000FA0E146E1C0E156E000E166E070EDBCFD1
:1007A00017F0186A196A1A6A17C00BF018C00CF013
:1007B00019C00DF01AC00EF0D3D9E0EC0DF01450B2
:1007C0000224F36E15500320F46E16500420F86EC8
:1007D000F4CFF7FFF3CFF6FF0800090EF5CFDBFFEC
:1007E000580EDF5C0FE1610EF36E090E7BD90AE350
:1007F000200E146E090EDBCFE7FF1450E75E090EE2
:10080000E7CFDBFF070EDBCF14F0156A166A176A15
:100810000FDA14C00BF015C00CF016C00DF017C0A5
:100820000EF0EECF06F0EECF07F0EECF08F0EFCFF0
:1008300009F0E0EC0DF009C0EDFF08C0EDFF07C0C6
:10084000EDFF06C0EFFF390EDBCFE9FFDB063A0E06
:10085000DBCFEAFF01E2DB06090EDBCFEFFF150E6F
:10086000DB2A4BD995E1030EDBA61DD06F0EDF5CB2
:1008700006E1C1D918E3150EDB285BDA14D0780E37
:10088000DF5C09E0580EDF5C06E0620EDF5C03E02F
:10089000420EDF5C08E1020EF36E160EF3CFDBFFB3
:1008A00002D0150EDB6A030EDB50100B0EE0040EB7
:1008B000DBCF14F0050EDB50D880145406E2060E90
:1008C000DB5003E1040EDB5034DA95D90AE2050E61
:1008D000DBCFE7FF150EDB50E75E050EE7CFDBFF52
:1008E00002D0050EDB6A040EDBCF14F0160E45D9DC
:1008F000D880145414E2160EDBCFE6FF150EDBCFC2
:10090000E6FF040EDBCFE6FF050EDB50E552E75CA9
:10091000E552D880E754E552D880E7545FD9030EFA
:10092000DB50010B0BE1080EDB5008E0B2D801E010
:100930008DD0080EDB50BED8080EDB6A170EDB50D8
:1009400007E088D9170EF1D903E1151C01E17ED02B
:10095000160EDB5016E07ED9300EE66E9FD802E10F
:10096000151C74E077D9DFCFE6FFDBEC0CF0E55225
:10097000E552E552F4CF15F00001F31C02E1151C1D
:1009800065E0050EDBCF14F0160EDB50D880145452
:1009900009E2050EDBCFE7FF160EDB50E75E050E22
:1009A000E7CFDBFF300EE66E050ECBD94FE1390EF7
:1009B000DB2ADBCFE9FF3A0E01E3DB2ADBCFEAFFDC
:1009C000090EEFCFDBFFDB500EE044D9090EADD9A5
:1009D00002E1151C3BE0390EDB2ADBCFE9FF3A0EC2
:1009E000EDE3DB2AEBD755D831E1160EDBCFE6FF7E
:1009F000080EC3D8E552E7245DD82ED0070EDB5091
:100A0000030A1CE0010A14E0030A07E07BD9DBCFEC
:100A1000EEFF020EDBCFEDFF1FD0F5D8196A17AE3F
:100A200002D0186819682CD8BCD819C0EEFF14D0B1
:100A3000EAD817BE186824D8B4D80ED063D9DBCF53
:100A4000EFFF0AD07BD905E1151C03E1F368F468D8
:100A500010D0FCD801E3DB2A79D9CBEF00F0010EEE
:100A6000DBCF14F0020EDBCF15F014C0F3FF15C07E
:100A7000F4FF3B0EE15C02E2E16AE552E16ECBD0AD
:100A800029D9020E31EF06F061D90800F550DF6E6A
:100A90001200200EE66E080EA1EF06F0DBEC0CF063
:100AA000E552E552E552F3CF14F0F4CF15F0000112
:100AB000F31C1200146E156AD950010F4DD9145051
:100AC000EE261550ED221200185E000E195AF70E90
:100AD00018C0DBFFF80E19C0DBFF18C0E9FF19C012
:100AE000EAFF1200DBCFF4FFF350F45C1200DB509E
:100AF000E76E040EE7CFDBFF12000A0EDBCF14F027
:100B00000B0EDBCF15F00C0EDBCF16F00D0EDBCF8E
:100B100017F014501510161017101200130EEECF08
:100B2000DBFF140EEDCFDBFF130EDBCF14F0140E42
:100B3000DBCF15F00001800E15141200F70EDBCF8D
:100B400018F0F80EDBCF19F01200050EDB50E66E40
:100B5000D950130F01D9E552E750EE6EED6A12003D
:100B60000A0EDBCF06F00B0EDBCF07F00C0EDBCF4F
:100B700008F00D0EDBCF09F01200DBCFE6FF150EFB
:100B8000DBCFE6FF050EDB50E552E724E552E72414
:100B90001200DB50CED8010EF36E060EF3CFDBFF52
:100BA0001200EE50EFCFEAFFE96E16C0EEFF17C05D
:100BB000EEFF18C0EEFF1200D9CFE6FFDACFE6FF56
:100BC000E1CFD9FFE2CFDAFF1200DFCFE6FFE66A1E
:100BD0001BEC0EF0E552E552F3501200E76E080EE2
:100BE000E7CFDBFF1200EECF14F0EECF15F0EFCF22
:100BF00016F0176A1200050EDBCF14F0150EDB504D
:100C0000D88014541200010EDBCF16F0020EDBCF99
:100C100017F0186A1200E552E5CFDAFFE7CFD9FFE7
:100C200012000A0E14C0DBFF0B0E15C0DBFF120012
:100C3000D9500A0FACEF06F0F36E070EF3CFDBFFCF
:100C40001200EECF14F0EFCF15F01200010EDB2AE8
:100C5000020E1200FC0EDBCFE6FFFD0EDBCFE6FF3F
:100C60001200145E000E155AF70E14C0DBFFF80ECA
:100C700015C0DBFF14C0E9FF15C0EAFF1200DA203F
:100C8000EA6EEF2AEECFF6FF000EEF22EECFF7FF6F
:100C9000EF22EECFF8FF1200040EDBCFE6FF130EBB
:100CA000DB50E552E75C9ADFDB5004DF060EDB50D9
:100CB0001200090EDB500A0DF350DF24D00FE76E4F
:100CC000090EE7CFDBFF44EF05F0DB50F36E050EB6
:100CD00072EF05F0F70EDBCF14F0F80EDBCF15F056
:100CE0001200DFCFE6FF4EEF05F028DF030EECDE4B
:100CF000F3EF05F0A0EC00F0E552E552E552E552C5
:100D000000091200BDDEEE50EFCFEAFFE96E010EE2
:100D10001200130EDB50F36E040E72EF05F0040E9A
:100D2000DB50F36E090E72EF05F0DBCFE6FF4EEFFE
:100D300005F0E76E050EE7CFDBFF12008BDF71EFEA
:100D400006F0DBCFE6FF86DF7AEF06F0D950F90F29
:100D5000E96EFF0E3FEF06F0E96E000EDA20EA6E54
:020D600012007F
:0E0D6200BBDA956A0201AC6BAD6BAE6BAF6B8A
:100D7000640E9C6F9D6B9E6F9F6BA06FA16B0A0EA4
:100D8000A26FA36B140EA46FA56B3C0EA66FA76B8E
:100D90000A0EA86FA96B58EC0AF048EC0AF09EEC1A
:100DA0000BF0B5EC0DF04ED982D9B0DA0201886BA8
:100DB000896B02018851891101E0EED083B004D023
:100DC000010E01018A6F8B6B83A28BDA0101010E88
:100DD0008A190CE18B510AE164DA0201AE6BAF6B48
:100DE000C80E2EDA01018A6B8B6B90DAC80E28DAF6
:100DF000A6DAABDAAC51AD1130E18B3504E28A51A1
:100E00000A08000E8B550BE3CCD9153424E232DAF4
:100E100022E2C7D9050E145E000E155A16D0F00E48
:100E20008BAF02D0D89003D08A5D000E8B5901E2BF
:100E3000A5D091DA04E6640E145C000E15580BE29E
:100E4000B0D9050E1426000E1522D8D94FDAEFCFEF
:100E5000E2F1F0EC09F0ABD98DD0010EAC1901E054
:100E60008DD0AD5101E08AD0F00E8DAF02D0D89078
:100E700003D08C5D000E8D5909E3AE51AF1102E134
:100E8000060E18D0AE07000EAF5B16D08D3504E20B
:100E90008C510A08000E8D5512E3AE2B000EAF23C5
:100EA000070EAFAF02D0D89003D0AE5D000EAF59A1
:100EB00003E3010EAE6FAF6B29DAFA0E5ED08B350D
:100EC00004E28A510A08000E8B5521E3050EAFAFEC
:100ED00002D0D89003D0AE5D000EAF5946E2030EAB
:100EE000AE190AE1AF5108E15CD9153405E2C2D967
:100EF00003E257D9140608D054D9153436E2BAD9CA
:100F000034E24FD9050E145E000E155A2DD0F00EA6
:100F10008BAF02D0D89003D08A5D000E8B592EE3A0
:100F2000050EAFAF02D0D89003D0AE5D000EAF5922
:100F30001CE2030EAE190CE1AF510AE10CDA04E633
:100F40000A0E145C000E155803E22BD9010E09D0CD
:100F500002DA04E6640E145C000E155806E221D98C
:100F6000050E1426000E152249D9D0D9FF0EE66EC3
:100F7000E66ACBD8E552E552C80E62D90101010EEE
:100F80008C1901E016D78D5101E013D78C6B8D6B56
:100F9000010E0201886F0CD7010E88190AE18951F0
:100FA00008E1BFD888C2E9F139EC0AF001018C6B85
:100FB0008D6B0201010E881919E1895117E1AC51BD
:100FC000AD1114E183A28DD90101010E8C1903E149
:100FD0008D5101E158D9B9D9E8CFE7F111EC0AF008
:100FE000AED9E8CFE8F125EC0AF0E3D70201010E13
:100FF00088191EE189511CE1AD351AE2AC51000897
:10100000000EAD5515E283A26CD90101010E8C19B9
:1010100003E18D5101E137D975D90101EA51E66E3D
:10102000E66AF30E146E1C0EEFD8070E01D9DED758
:10103000886B896B550EE66E020E3BD9020E06D9FF
:1010400065D9B7D695809582120047D925D9C7D8DA
:10105000D890E936EA368E0EE926010E65D96AD9AE
:101060000201AD3504E2AC510108000EAD5518E3A4
:10107000AF3504E2AE510208000EAF5505E3A3D828
:10108000ED0E146E1C0E09D0070EAE1902E1AF5121
:1010900007E099D8E80E146E1C0EB6D8090EC8D811
:1010A000110EE15C02E2E16AE552E16EE8D0F4D8AB
:1010B000770EE66E020EE66E3DD924D9000EE66E7E
:1010C000010EE66E37D9020E26EF09F0ACD811E01A
:1010D000FCD81AE2CFD818E2F2D8F1D8320EE66E78
:1010E00004EC0EF0E552FD0EDB06FE0EF1E2DB062F
:1010F000EFD7EBD809E2BED807E2E1D8FD0EDB0658
:10110000FE0EF7E2DB06F5D7BAD08DD802E0A4D800
:10111000A3D8A2D8B4D087D802E0A5D8A4D8A3D8A1
:10112000AED0440EE66E020EC4D8010E8FD8660E05
:10113000E66E020EBED80201010EAC1905E1AD51FA
:1011400003E1AC6BAD6BADD8120009D948D8EE50B5
:10115000ED1003E144D8010E11D041D8010EEE1874
:1011600005E1ED5003E13BD8020E08D038D8020E5D
:10117000EE1809E1ED5007E132D8030EEE6EED6A8C
:101180000101E06F0BD02BD8030EEE1809E1ED50F2
:1011900007E125D8EE6AED6A0101E06B05EC0AF083
:1011A0006ED0A4D8EECF14F0EFCF15F01200AEC27F
:1011B000E6FFAFC2E6FFACC2E6FFADC2E6FF45DF29
:1011C000E552E55212009ED8A5D89C0EE926020EE3
:1011D000ABD8A0D89E0EE926010E94EF09F0FD0EC3
:1011E000DBCFE9FFFE0EDBCFEAFF1200E66EE66A18
:1011F000C5EC0DF0E552E552C0EF0DF077D814C004
:10120000EEFF15C0EDFF1200156E166A14C0E6FF62
:10121000E66E16C0E6FFD9CFE6FFDACFE6FF36EC82
:101220000CF0176E12009BD8010188518911120031
:10123000E15E1750D9CFE6FFDACFE6FF9AEF09F06B
:10124000E66EE66A62DFE552E5521200E66EE66A95
:101250003DDFE552E5521200FD0EDBCFE6FF2DEC3F
:101260000EF0E5521200FD0EDBCFE6FF69EC0EF04A
:10127000E552120014500008000E15541200E552F9
:10128000E7CFD9FF12008C6B8D6B0201886B896BE5
:1012900088C2E9F139EF0AF06AEC0BF0010EE66E54
:1012A00063D0ACC1E6FFADC1E6FF4FDFE552E552CA
:1012B0001200E66EF2EC0BF0E552E5521200640EFD
:1012C000E66E04EC0EF0E5521200FD0EDBCF14F0DA
:1012D000FE0EDBCF15F01534120041D8110EE126B9
:1012E0001200010E01018C6F8D6B1200AEC2E9FF7E
:1012F000AFC2EAFFD890E936EA369C0EE926020E24
:10130000EA221200010EE66E020E2ED050DFE552E8
:10131000E5521200FB0EDBCFE9FFFC0EDBCFEAFF4C
:10132000D890E936EA361200EA22EECFE6FFEFCF98
:10133000E6FF1200D1EC0BF0E552E5521200020E6E
:1013400055DF02018A6F8B6B1200010E4FDF020125
:101350008C6F8D6B120025DFD89015501200D9CFFD
:10136000E6FFE1CFD9FF1200E66E6EEC0BF0E5521E
:04137000E552120030
:0C1374007DD96DD907E0ACA2FED769D985
:10138000AD6E010EF36E01D0F36AF46A76D170D9B6
:10139000ACA2FED7FD0EDB50AD6E6FD1ACA2FED776
:1013A0000A0EAD6EACA2FED70D0EAD6E120060D966
:1013B000FD0EDBCFE6FFFE0EDBCFE6FFDBDFE55207
:1013C000E552F3CF14F0F4CF15F0F350F41006E02B
:1013D000FD0EDB2AFE0EECE3DB2AEAD7DFDF4DD180
:1013E000FC0E2AD90101E25127D9FB0E2CD1FA0EAD
:1013F00023D90101E35120D9F90E25D1F60E1CD9CC
:101400000101E55119D9F50E1ED1F40E15D90101CE
:10141000E05112D9F30E17D1FE0E0ED9FD0E1CEFBE
:101420000BF00101E751146E156A153407E21450F0
:10143000E608000E155402E2E60EE76FF80EFCD83F
:101440000101E751F9D8F70EFED00101E851146E01
:10145000156A153407E21450E608000E155402E22E
:10146000E60EE86FF20EE8D80101E851E5D8F10E7A
:10147000EAD0F00EE1D80101E951DED8EF0EE3D059
:10148000AFDFB5DFBBDFC1DFCCDFDFDF39EF0AF075
:101490009F8AD08E9398949C948EAC98AC84AC8A9E
:1014A000400EAF6EAB8EAB889D8AF28EF28C12002E
:1014B000D58ED59CD586D59AF194F29AF2941200E5
:1014C000C4D8F40E141807E1155005E10101E00E2F
:1014D000F56F010E95D0B9D8F30E141803E115502D
:1014E00001E18AD0B2D8FC0E141807E1155005E1CD
:1014F0000101E20EF56F010E83D0A7D8FB0E141880
:1015000003E1155001E178D0A0D8FA0E141807E1D4
:10151000155005E10101E30EF56F010E71D095D86C
:10152000F90E141802E1155067E08FD8FE0E14185A
:1015300008E1155006E1FE0EA4D88188FD0EA1D861
:1015400066D083D8FD0E141802E1155055E07DD801
:10155000F80E141807E1155005E10101E70EF56FCB
:10156000010E4ED072D8F70E141802E1155044E067
:101570006CD8F60E141807E1155005E10101E50ECF
:10158000F56F010E3DD061D8F50E141802E115502B
:1015900033E05BD8F20E141807E1155005E10101A4
:1015A000E80EF56F010E2CD050D8F10E141802E1A0
:1015B000155022E04AD8F00E141807E1155005E145
:1015C0000101E90EF56F010E1BD03FD8EF0E141884
:1015D00002E1155011E039D8EE0E141807E115504C
:1015E00005E10101EA0EF56F010E0AD02ED8ED0ECD
:1015F000141808E1155006E10101AE0EF56F010E59
:10160000F66F05D02ED80101F52B000EF62329D850
:101610000D0EAE5C07E0E00E0101F51908E1010EC8
:10162000F61905E10101AE0EF56F010EF66F12001D
:10163000F29AF294F28A120024D8050EE66E8BEC30
:1016400008F0E552120041EF0BF0AE50146E156A2F
:101650001200FD0EDBCFE9FFFE0EDBCFEAFFEF50FD
:101660001200AE50F5C1E9FFF6C1EAFFEF6E1200BD
:10167000D9CFE6FFE1CFD9FF1200E552E7CFD9FF7E
:0E1680001200E66EE66A83DEE552E5521200C5
:02168E00CED8B4
:10169000FE0EDBA002D0838801D08398DBA202D0AB
:1016A000838A01D0839ADBA402D0838C01D0839CEF
:1016B000DBA602D0838E01D0839EBDD0B7D88394A1
:1016C000FE0EDBCFE6FFE3DFE5528386040EC1D8D2
:1016D0008396B1D0C3D8010E04EF0CF0A7D8030E47
:1016E000E126FE0EDB0404E1FD0EDB50800F07D087
:1016F000FE0EDB5002081BE1FD0EDB50C00FFF0F9A
:10170000DF6EDF380F0BE76E010EE7CFDBFF0F0E4A
:10171000DF14E76E020EE7CFDBFF010EDBCFE6FF43
:10172000CDDFE552020EDBCFE6FFC8DFE552030E48
:10173000E15C02E2E16AE552E16E7DD0E66AA7DF94
:10174000E552140E8FD8050E8DD8140E8BD8020ECC
:101750005BD8020E59D8080E57D880D80C0E54D832
:101760007DD8060E04EF0CF061D8020EE126FE0EC5
:10177000DB500F0BDF6EFE0EDB50F00BE76E010E41
:10178000E7CFDBFF8384DB380F0BE66E58D8DFCF63
:10179000E6FF55D8020EE15C02E2E16AE552E16E35
:1017A0004AD044D8020EE126DE6ADD6A31D809E06B
:1017B0002FD8E66ED9DFE552DF2A010EF7E3DB2AE8
:1017C000F5D7020EE15C02E2E16AE552E16E33D048
:1017D000010E1AD80C0E04EF0CF0010E15D8080EED
:1017E00004EF0CF023D876DF010EE66EE66E76DFAE
:1017F000E552E552FD0EDBCFE6FFFE0EDBCFE6FF46
:10180000D0DFE552E55217D0E66E58DFE552120000
:10181000FD0EDBCF14F0FE0EDBCF15F0DE501424EE
:10182000E96EDD501520EA6EEF501200D9CFE6FFC9
:10183000E1CFD9FF1200E552E7CFD9FF120027DF31
:10184000E5528386040EE66E69EC0EF0E55283964F
:101850001200E66E2DEC0EF0E5521200E66A2EDF65
:0C186000E5521200F6DF030E04EF0CF05E
:04186C00D9CFE6FFEB
:10187000DACFE6FFE1CFD9FFE2CFDAFFE652E65258
:10188000E652E652D950F90F146EFF0EDA20156EAB
:10189000020E14C0DBFF030E15C0DBFF020EDBCF10
:1018A000E6FF030EDBCFE6FFF90EDBCFE6FFFA0E15
:1018B000DBCFE6FFFB0EDBCFE6FFD950FC0FE66E79
:1018C000FF0EDA20E66EB6EC00F0146E070EE15C57
:1018D00002E2E16AE552E16E1450F3CFDEFFF4CF8D
:1018E000DDFFFC0EDBCFE9FFFD0EDBCFEAFFEF6A89
:1018F000DECF14F0DDCF15F014C0F3FF15C0F4FFF8
:10190000040EE15C02E2E16AE552E16EE552E5CFE8
:08191000DAFFE7CFD9FF120056
:081918000E0EF66E010EF76ED3
:10192000000EF86E01010900F550F06F0900F55046
:10193000F16F03E1F06701D03DD00900F550EB6F86
:101940000900F550EC6F0900F550ED6F0900090032
:10195000F550E96E0900F550EA6E0900090009002A
:10196000F550EE6F0900F550EF6F09000900F6CF52
:10197000F2F1F7CFF3F1F8CFF4F1EBC1F6FFECC1E0
:10198000F7FFEDC1F8FF0101EE5302E1EF5307E06D
:101990000900F550EE6EEE07F8E2EF07F9D7F2C155
:1019A000F6FFF3C1F7FFF4C1F8FF0101F007000EE5
:0619B000F15BBFD712003D
:0A19B600D9CFE6FFDACFE6FFE1CF5C
:1019C000D9FFE2CFDAFFFB0EDBCF14F0FC0EDBCF4A
:1019D00015F00001800E15141AE1FB0EDBCFE9FFB4
:1019E000FC0EDBCFEAFFEECFF3FFEDCFF4FFEE2AE4
:1019F000000EEF22F3CFE9FFF4CFEAFFFD0EDBCFBD
:101A0000EFFFEF50156AF36E15C0F4FF10D0FB0E18
:101A1000DB50FE0806E1FD0EDBCFE6FF5BEC0EF0CF
:101A200005D0FD0EDBCFE6FF03EC00F0E552E552FA
:0A1A3000E5CFDAFFE7CFD9FF12007F
:061A3A0006500B02F3CF81
:101A400002F0F4CF03F00C02F3500326000EF42052
:101A5000046E06500D02F3500426000EF420056EAD
:101A600006500E02F350052607500B02F3500326D2
:101A7000F4500422000E052207500C02F3500426F5
:101A8000F450052207500D02F350052608500B02B2
:101A9000F3500426F450052208500C02F35005269A
:0A1AA00009500B02F3500526120056
:061AAA00FE0EE3CFE9FF90
:101AB000FF0EE3CFEAFFF36AF46AEE5203E0F34A63
:101AC000F42AFBD71200FF0EE3CFF8FFE552FF0E1A
:101AD000E3CFF7FFE552FF0EE3CFF6FFE552E66AEC
:101AE000E66AE66A0900F55209E0FD0EE32A05E11F
:101AF000FE0EE32A02E1FF0EE32AF4D7FD0EE3CF48
:101B000007F0FE0EE3CF08F0FF0EE3CF09F012005E
:101B100009C013F008C012F008500D02F4CF07F00E
:101B2000F3CF06F009500E02F4CF09F0F3CF08F01E
:101B30000D02F3500726F4500822E86A09221250D9
:101B40000E02F3500726F4500822E86A09220EAE6E
:101B5000AEEF0DF01250085E1350095A13AE000C90
:0A1B60000D50085E0E50095A000CEB
:061B6A00C70ED56E010E4E
:101B7000C26EC16A380EC014C06EF2A4FED7120045
:101B8000C2829EACFED7C4501200D9CFE6FFE1CF8F
:101B9000D9FFC30EC214C26EFD0EDBCF16F0FE0ECF
:101BA000DBCF17F0D89016361736D8901636173682
:101BB000C2501610E850C26EE552E7CFD9FF1200AE
:101BC000056A046A036A026A200EE76ED890063638
:101BD00007360836093602360336043605360B500A
:101BE000025C0C5003580D5004580E50055809E380
:101BF0000B50025E0C50035A0D50045A0E50055AF9
:081C0000062AE72EE4D71200CA
:081C0800FF0EE3501C6EEF0E0D
:101C100001D0F30EE76EE72E0BEF0EF00C0E1B6EED
:101C2000E76AE72E11EF0EF01B2E10EF0EF01C2EC0
:061C300009EF0EF01200A6
:0A1C3600F36AF46AFF0EE124E96E80
:101C4000FF0EE220EA6EED6607D02F0EEF6404D09F
:0A1C50003A0EEF6001D0F32A1200F3
:061C5A00FF0EE3501C6EBA
:101C6000480E01D04C0EE76EE72EFED7E76AE72E4E
:0A1C7000FED71C2EF7D7000012006B
:061C7A00000EF36E00EE07
:101C800000F0060E01D81200EA6002D0EE6AFCD71E
:0A1C9000F350E9601200EE6AFCD781
:061C9A0015EE00F025EE3E
:101CA00000F0F86A019C8CEC0CF007EC00F0B1EC51
:061CB00006F0FBD7120054
:0A1CB600FF0EE350ACBA04D0AF6A91
:101CC000AB8EAC8A949CACA2FED7AD6EF36EF46A78
:021CD000120000
:0E1CD200FF0EE350E84E1200000000D000D0DC
:081CE00000D0E82EFAD7120033
:081CE800257325640025732516
:0A1CF00064250049523A20256400E3
:061CFA00303132333435B5
:0B1D00003637383961626364656600A5
:051D0B004D616E7561E1
:101D10006C204D6F64650000000000004661637434
:101D20006F7279204D6F646500000000004173738D
:101D30006973746564204D6F64650000000046752A
:101D40006C6C204175746F000000000000000047BB
:101D500069646479757021000000000000000000D3
:101D600057686F61210000000000000000000000C3
:101D7000005461737465206D79206C616E63652118
:101D8000008C426F772C20666F72204920616D00B5
:031D900000000050
:0D1D9300436861726C656D61676E652100CB
:101DA000000000004D61782073706565643A0000A2
:101DB0000000000000504944206761696E733A00DA
:101DC00000000000000054696D6520686F722E3AB3
:101DD0000000000000000049522073616D702F6503
:101DE00073743A000000000049522073616D702046
:101DF000726174653A00000000526177206461747A
:101E0000613A00000000000000004176672E206467
:101E10006174613A00000000000000010000000051
:101E20000000021102220233021101220133014497
:101E3000011101220133014401550166017701AC12
:011E4000029F
:0F1E410030000000000000000000000000000062
:101E50000000000000000000000000000000000082
:101E60000000000000000000000000000000000072
:0E1E70000000000064640A140A0010800000E4
:020000040030CA
:0100010002FC
:0100020018E5
:010003001EDE
:010005008179
:010006008079
:010008000FE8
:01000900C036
:01000A000FE6
:01000B00E014
:01000C000FE4
:01000D0040B2
:00000001FF
