:020000040000FA
:06000000B5EF0BF0120049
:020006001200E6
:060008000FEF00F01200F2
:02000E00800070
:0400100000000000EC
:0800180063EF00F01200DACFE3
:10002000E4FFE2CFDAFFE9CFE4FFEACFE4FFF6CF67
:10003000E4FFF7CFE4FFF5CFE4FFF3CFE4FFF4CF25
:10004000E4FFFACFE4FF00EE1CF0140EE80403E333
:10005000EECFE4FFFBD700EE00F01C0EE80403E354
:10006000EECFE4FFFBD7E6529EAA03D0BEEC09F028
:100070009E9A9EA203D025EC07F09E92F28EE55246
:1000800000EE1BF01C0EE80403E3E5CFEDFFFBD709
:1000900000EE2FF0140EE80403E3E5CFEDFFFBD7ED
:1000A000E5CFFAFFE5CFF4FFE5CFF3FFE5CFF5FFAE
:1000B000E5CFF7FFE5CFF6FFE5CFEAFFE5CFE9FFB4
:1000C000E5CFDAFF1100DACFE4FFE652E552E5CFE3
:1000D000DAFF1100F29EF28C9E929D829F82F28C3A
:0400E000F28E12008A
:0C00E4000400D3170000800000003E0064
:1000F0000000AE170000BE00000025000000A2179F
:100100000000000100000C0000000E000000F900DB
:06011000000006000000E3
:0A011600CB68CA84CA86CA88CA8A68
:10012000CA8CCA82CA80BB6ABE6A946ACF0EBA14ED
:100130000009BA6EBA86BA84CF0EBD140009BD6E2E
:10014000BD86BD841200FBDA080EE1268ADA010EB4
:10015000001A000E011A00C0DEFF01C0DDFF16DB31
:1001600003DB98DA010E001A000E011A040E00C01B
:10017000DBFF050E01C0DBFFFB0EDBCF24F0FC0E26
:10018000DBCF25F0060E24C0DBFF070E25C0DBFF0A
:10019000040EDBCF06F0050EDBCF07F001010451A2
:1001A00006C004F007C005F005E0D8900436053617
:1001B000E804FBE1060EDBCF0AF0070EDBCF0BF005
:1001C000010106510AC008F00BC009F005E0D89003
:1001D00008360936E804FBE104500810026E0550A9
:1001E0000910036E020EDBCF0EF0030EDBCF0FF013
:1001F000010108510EC00CF00FC00DF005E0D890C1
:100200000C360D36E804FBE102500C10006E035072
:100210000D10016EDECF12F0DDCF13F001010A5197
:1002200012C010F013C011F005E0D890103611364E
:10023000E804FBE100501010826E080EE15C02E25F
:10024000E16AE55264D27BDA120EE1260001BB516D
:1002500003E18392839404D0BB0502E1838283840B
:10026000640E006E016A92DA00C029F001C02AF023
:100270008FEC0BF00C0E24C0DBFF0D0E25C0DBFF56
:10028000F0D9EE0E49DA03E3FD0EDB6806D0E9D9BA
:10029000110E42DA04E2FD0EDB6AFE0EDB6AFAD9C9
:1002A000EE0E3ADA03E3FB0EDB6806D0F3D9110E4B
:1002B00033DA04E2FB0EDB6AFC0EDB6A45DA030E7E
:1002C000DB6AD950FD0F8DDAC00E90DA800E53DA5A
:1002D000C8D9800E005E000E015A020E246E256AF7
:1002E00000C029F001C02AF0D0EC05F0060E22C0B3
:1002F000DBFF070E23C0DBFFD950FB0F72DA800E45
:1003000075DA19E2FB0EDBCF04F0FC0EDBCF05F053
:10031000800E045E000E055AC4D905E0D890033261
:100320000232E806FBE1060EDB500224006E070EE7
:10033000DB5003201DD0FD0EDBCF04F0FE0EDBCF23
:1003400005F0800ED8800456000E0556AAD905E0A7
:10035000D89003320232E806FBE1060EDBCF24F030
:10036000070EDBCF25F00250245C006E03502558A9
:10037000016E080E00C0DBFF090E01C0DBFF020E9C
:10038000246E256A060EDBCF29F0070E0BDA080E65
:10039000DB50225C006E090EDB502358016E0A0E02
:1003A00000C0DBFF0B0E01C0DBFF62D9120EE15C67
:1003B00002E2E16AE552ABD1C2D9080EE1260001A2
:1003C000BB5103E18392839404D0BB0502E1838295
:1003D0008384CAD826EC04F070D924C0DEFF25C07F
:1003E000DDFFC2D827EC04F068D9BED9DECF00F01B
:1003F000DDCF01F00001800E011411E0040EDB6A74
:10040000050EDB6A24682568DECF29F0DDCF2AF0EF
:10041000A3EC05F022C0DEFF23C0DDFF02D0010EF9
:10042000AAD9020EDBCF00F0030EDBCF01F00001F2
:10043000800E011415E0060EDB6A070EDB6A2468E5
:100440002568020EDBCF29F0030EDBCF2AF0A3ECE8
:1004500005F0020E22C0DBFF030E23C0DBFF07D036
:10046000010EF36E060EF3CFDBFF070EDB6A020E02
:10047000DB50BE6EDF50BB6E060EDBCFE6FF070E15
:10048000DBCFE6FF040EDBCFE6FF050EDBCFE6FF9A
:100490009BD9080EE15C02E2E16AE55238D14FD9FE
:1004A0000C0EE1260001BB5103E18392839404D03A
:1004B000BB0502E183828384D4D8E60E2DD903E301
:1004C000FD0EDB6806D0CDD8190E26D904E2FD0E4C
:1004D000DB6AFE0EDB6ADED8E60E1ED903E3FB0EF6
:1004E000DB6806D0D7D8190E17D904E2FB0EDB6AF9
:1004F000FC0EDB6AD950FD0F1ED902E24ED914D092
:10050000B0D8370E09D908E248D997D809D9DE6A98
:10051000DD6A020EDB6A1FD0D950FB0F0CD907E24F
:10052000E6D80A0F19D92ED988D8FAD813D0B2D85C
:10053000370EF2D807E226D980D84CD9D8D8080F80
:100540000BD908D00A0EDB6A0B0EDB6A080EDB6AD9
:10055000090EDB6AF9D8030EDB6A8AD80C0EE15C5F
:1005600002E2E16AE552D3D011D913EC04F023C0C2
:1005700004F024C005F025C006F026C007F0F90EEF
:10058000DBCF10F0FA0EDBCF11F0FB0EDBCF12F059
:10059000FC0EDBCF13F0286A296A980E2A6E410EF2
:1005A0002B6E10C023F011C024F012C025F013C030
:1005B00026F010EC05F023C00CF024C00DF025C08F
:1005C0000EF026C00FF0E2D813EC04F023C018F0B0
:1005D00024C019F025C01AF026C01BF0EA0E286EC0
:1005E000950E296E320E2A6E3C0E2B6E10EC05F025
:1005F00023C014F024C015F025C016F026C017F053
:10060000DAD80CC023F00DC024F00EC025F00FC0C6
:1006100026F0BDEC04F023C008F024C009F025C08A
:100620000AF026C00BF0C7D804C023F005C024F0A0
:1006300006C025F007C026F01200256AB4C029F0D4
:1006400003C02AF0A3EC05F022C000F023C001F0A3
:10065000640E296E2A6A22C024F023C025F07DEFA3
:1006600005F0FD0EDBCF00F0FE0EDBCF01F0120037
:100670000A0EDB50BE6E080EDB50BB6E020EDBCFE7
:10068000E6FF030EDBCFE6FFDECFE6FFDDCFE6FFC2
:10069000E4EF03F0FB0EDBCF00F0FC0EDBCF01F04C
:1006A000120004C024F005C025F0040EDBCF29F0B1
:1006B000050E78D8070E0F0B120023C000F024C0DF
:1006C00001F025C002F026C003F0286A296AC00E96
:1006D0002A6E400E2B6E10EC05F0EEEF05F024C0F4
:1006E00000F025C001F076D886D824681200400EAC
:1006F0000001B403F3CF00F0640E016E2A6EF3CF55
:1007000025F0C3EC0BF02550E66ED9501200E16ED7
:10071000E552E7CFD9FF1200005C000E015812002D
:1007200024C000F025C001F0080E24C0DBFF090E34
:1007300025C0DBFF120055D8C80EF6EF03F0D9CF65
:10074000E6FFE1CFD9FF1200010EDE6EDD6AF36E27
:10075000020EF3CFDBFF1200E96EDACFEAFFE552BB
:10076000E750EE6EED6A1200020E24C0DBFF030EAE
:1007700025C0DBFF1200F36E040EF3CFDBFF050E86
:10078000DB6A120038D8800E246E1200FD0EDBCF1B
:1007900024F0FE0EDBCF25F012002DD824684DDFAB
:1007A0006FEF03F0DBCF2AF0D0EC05F022C002F0AF
:1007B00023C003F0120023C028F024C029F025C074
:1007C0002AF026C02BF01200BEDCE552E552E552BD
:1007D000E55212000A0E24C0DBFF0B0E25C0DBFF22
:1007E0001200E96EFF0EDA20EA6E1200D880EE5495
:1007F000000EED5412000001B451026E036A1200A3
:100800001D9E05D01D9E25AE02D0256C1D8E25C0D7
:100810001FF01E6A2F6A2E6A860E206E216AA0EFD4
:1008200006F01D9E08D01D9E25AE05D0246C251E09
:10083000E86A25221D8E25C01FF024C01EF02F6AF5
:100840002E6A8E0E206E216AA0EF06F02B7E1D6AA6
:10085000DCEC06F0F4EC06F01DB684EF06F01DA209
:100860000AD01DAA03D01DBE84EF06F01DA490EF90
:1008700006F08DEF06F01DAA05D01DAC90EF06F036
:100880008DEF06F01DA00AD01DA808D01DBE04D013
:100890001DA402D099EF06F09DEF06F02E6A216AA2
:1008A0002B50265C2D6E10E323C02FF024C01EF0C9
:1008B00025C01FF026C02CF028C023F029C024F04A
:1008C0002AC025F01D3A09D028C02FF029C01EF0FB
:1008D0002AC01FF02BC02CF02D6C1D9E1DBC1D8E40
:1008E0002CC020F01DB0CCEF06F01A0E2D60CCEF1E
:1008F00006F0206A266A1DA408D0236C241E251E3B
:10090000261EE86A2422252226221DAC08D02F6C40
:100910001E1E1F1E201EE86A1E221F222022226A7F
:100920002D5207E0263425322432233222322D2E56
:10093000F9D723502F2624501E2225501F2226503F
:10094000202222C02EF01D9E20AE0BD02E6C2F1E1A
:100950001E1E1F1E201EE86A2F221E221F2220227A
:100960001D8E20A006D0D8801F321E322F322E328C
:100970002C2A2CC020F0A0EF06F01D6ADCEC06F05B
:10098000F4EC06F01DB684EF06F01DA205D01DBAEA
:1009900084EF06F08BEF06F01DBA97EF06F01DA06E
:1009A00005D01DB884EF06F097EF06F01DB88BEF69
:1009B00006F0216A7F0E2624206EE86A21222B5041
:1009C000205EE86A215A1A0E2C6E266A2E6A2F6A59
:1009D0001E6A1F6A2850235E2950245A2A50255A1D
:1009E000000E265A09E728502326295024222A508F
:1009F0002522000E262201D02E8AD89023362436B6
:100A000025362636D8902E362F361E361F362C2EFB
:100A1000E1D7255024102310D8A42E8AA0EF06F089
:100A20001D6ADCEC06F0F4EC06F01DB684EF06F06F
:100A30001DA205D01DB884EF06F08BEF06F01DAAAD
:100A400005D01DB084EF06F08BEF06F01DB002D08C
:100A50001DA802D097EF06F0216A2B502624206EA5
:100A6000E86A21227E0E205EE86A215A2E6A2F6AE9
:100A70001E6A1F6A2A502502F4CF1FF0F3CF1EF022
:100A800029502502F3502F26F4501E22000E1F225B
:100A90002A502402F3502F26F4501E22000E1F224B
:100AA00028502502F3502E26F4502F22000E1E222D
:100AB0001F2229502402F3502E26F4502F22000E1C
:100AC0001E221F222A502302F3502E26F4502F22DA
:100AD000000E1E221F2228502402F4502E26000E43
:100AE0002F221E221F2229502302F4502E26000EF0
:100AF0002F221E221F22A0EF06F01C6A2AAE86EFCC
:100B000005F0296C2A1EE86A2A221C1E25AE8EEFEB
:100B100005F0246C251EE86A25221C1E8FEC0BF0C4
:100B200025BE9EEF05F01CAE000C246C251EE86A65
:100B30002522206C211EE86A2122000C1CBE95EFA4
:100B400005F01D88FF0C25C02FF024C02EF0245086
:100B50002902F4CF23F0F3CF22F025502A02F4CF5C
:100B600025F0F3CF24F02902F3502326F450242259
:100B7000E86A25222E502A02F3502326F45024221C
:100B8000E86A25222AAEC9EF05F02E50245E2F50C8
:100B9000255A2FAE000C2950245E2A50255A000CED
:100BA00024C02EF024502902F4CF23F0F3CF22F0FA
:100BB00025502A02F4CF25F0F3CF24F02902F35078
:100BC0002326F4502422E86A25222E502A02F350CC
:100BD0002326F4502422E86A2522000C1D6ADCEC4E
:100BE00006F01DB6F8EF05F01DA20ED01DB405D01D
:100BF0007F0E256EFF0E246E1FD0800E256E246A98
:100C00001BD0256A246A18D01DB0FBD78F0E266032
:100C1000EDD77E0E2664F5D78E0E265C05E0D890C3
:100C200025322432262AF8D71DA406D0246C251E8E
:100C3000E86A252225AEE5D712002FEC06F01DB696
:100C4000000C1DB0000C1DB4000C010C2FEC06F0C4
:100C50001DB6000C1DB0000C1DA4000C010C1D6A7B
:100C6000DCEC06F0F4EC06F01DB612001DAE08D068
:100C70001DA004D01DA802D01D8012001D901200DE
:100C80002B50265C0BE12A50255C08E12950245C9E
:100C900005E12850235C02E11D801200D8A002D09B
:100CA0001D8E10D026502BC026F02B6E25502AC04A
:100CB00025F02A6E245029C024F0296E235028C024
:100CC00023F0286E2B50265C10E0FF0F09E01D90EA
:100CD0001DB403D01DAE1D8412001DAE1D94120064
:100CE0002B2AD8902A32293228322850235E2950C4
:100CF000245A2A50255A25BEEAD7D89023362436BE
:100D00002536262EF8D7C8D77F0E266EFF0E256E05
:100D1000246E236E12007F0E1DBEFF0E266E02D0C3
:100D20007F0E266E800E256E246A236AF3D71DAED1
:100D300004D0800E266E256AF7D7266A256AF4D776
:100D40001F501E102F102E10F8E021BEF0D71FBE2E
:100D50000CD020502110EBE0D8902E362F361E36C6
:100D60001F362006D8A02106F2D72150D4E1202832
:100D7000D2E02EAE11D07F0E2E1402E12FA00CD0A7
:100D80002F2AE86A1E221F2207E3D8801F321E3254
:100D90002F32202A2028BFE02050C9E02FC023F0A6
:100DA0001EC024F01F34256E2030266E2532269E6C
:100DB0001DBE268E8AEF06F02536263602E31D84F8
:100DC0001D7E06E11D80266A256A246A236A1200B8
:100DD000262803E0D88025321200D890253202E17F
:100DE0001D8212001D8612002A362B3602E31D8C4E
:100DF0001D7E06E11D882B6A2A6A296A286A12006C
:100E00002B2803E0D8802A321200D8902A32EAE157
:040E10001D8A120025
:0C0E14000001C4511200BFC022F0C0C099
:100E200023F0C1C024F0C2C025F01200D1C022F0CE
:100E3000D2C023F0D3C024F0D4C025F012000001AA
:100E4000E30EF76F000EF86F12000001D52B000EB5
:100E5000D6230001B751006E016A00500001D51978
:100E600032E10150D6192FE1D56BD66B010EE66E3B
:100E7000E66A50EC0BF0E552E5524BEC0BF0F7C094
:100E8000E9FFF8C0EAFFEE6EED6A0001020EF727F7
:100E9000000EF8230001D72BD8230001B651006EB5
:100EA000016A00500001D7190EE10150D8190BE179
:100EB0000001E30EF76F000EF86F0001D76BD86BDF
:100EC000010EC56FC66B1200EFD9E652DF6A000152
:100ED000010EC51901E081D0C65101E07ED00001AC
:100EE000B651E66EE66AE30EE66E000EE66E77D861
:100EF000E552E552E552E552F3CFD9F0F4CFDAF0FE
:100F0000F3CFBDF0B6EC09F0D9C0E6FFDAC0E6FFDA
:100F1000DDD8E552E5520001C36FE8044BE1BFC0E4
:100F2000CDF0C0C0CEF0C1C0CFF0C2C0D0F0D9C0AB
:100F3000E6FFDAC0E6FFDAD8E552E55222C0BFF09C
:100F400023C0C0F024C0C1F025C0C2F0CDC028F03D
:100F5000CEC029F0CFC02AF0D0C02BF022C023F0A1
:100F6000C0C024F0C1C025F0C2C026F026EC04F0B9
:100F700023C0D1F024C0D2F025C0D3F026C0D4F0D5
:100F80000001CB2B000ECC23030ECB1904E1CC5176
:100F900002E1CB6BCC6BBFC0E6FFC0C0E6FFC1C0B7
:100FA000E6FFC2C0E6FF38D9E552E552E552E55208
:100FB000DF6E05D0DF6AD16BD26BD36BD46B010EC1
:100FC0000001C76FC86BC451DF5C05E0DFCFC4F020
:100FD000010EC96FCA6BC56BC66BE5526AD164D985
:100FE000080EE126020EDB6A030EDB6A040EDB6AE2
:100FF000050EDB6A060EDB6A070EDB6ADE6ADD6A57
:10100000DECF00F0DDCF01F0FB0EDBCF02F0FC0EF7
:10101000DBCF03F00250005C0350015827E2DECF23
:1010200004F0DDCF05F0D89004360536FD0EDB5018
:101030000424E96EFE0EDB500520EA6EEECF00F0D0
:10104000EFCF01F0026A036AD950040FE96EDACFDC
:10105000EAFF0050EE260150EE220250EE2203502D
:10106000EE22DF2A010ECCE3DB2ACAD72FD9026A8F
:10107000036A00C027F001C028F002C029F003C0B5
:101080002AF0040EDBCF22F0050EDBCF23F0060E94
:10109000DBCF24F0070EDBCF25F06BEC0BF0020E5C
:1010A00022C0DBFF030E23C0DBFF020EDBCF00F00C
:1010B000030EDBCF01F000C0F3FF01C0F4FF080E08
:1010C000E15C02E2E16AE552E16EF3D0EDD8FD0E9B
:1010D000DBCF00F0FE0EDBCF01F00A0E005C000E4D
:1010E000015802E3010E01D0000EE3D0DDD8040E5A
:1010F000E126046A056A800E066E3F0E076EFD0E3D
:10110000DBCF24F0FE0EDBCF25F011EC04F023C082
:1011100018F024C019F025C01AF026C01BF0CDD855
:10112000DBC023F0DCC024F0DDC025F0DEC026F0FB
:1011300010EC05F023C014F024C015F025C016F003
:1011400026C017F0286A296AA00E2A6E400E2B6E60
:1011500010EC05F023C010F024C011F025C012F0EF
:1011600026C013F0286A296A7F0E2A6E430E2B6E62
:10117000BDEC04F023C00CF024C00DF025C00EF02F
:1011800026C00FF0DFC028F0E0C029F0E1C02AF04F
:10119000E2C02BF026EC04F023C008F024C009F0D4
:1011A00025C00AF026C00BF088D804C023F005C083
:1011B00024F006C025F007C026F0BDEC04F023C0E3
:1011C00000F024C001F025C002F026C003F03D0E5F
:1011D000286E0A0E296ED70E2A6E3E0E2B6E26EC56
:1011E00004F023C0DEFF24C0DEFF25C0DEFF26C0E2
:1011F000DDFFDD52DD52DECF22F0DECF23F0DECF89
:1012000024F0DDCF25F0DD52DD52040EE15C02E278
:10121000E16AE552E16E4DD047D8E652DF6AD95017
:10122000FB0FE96EFF0EDA20EA6EFB0EEECFDBFF5E
:10123000FC0EEECFDBFFFD0EEECFDBFFFE0EEECFA2
:10124000DBFF15D826EC06F0010A02E1010E06D0FC
:101250000ED81DEC06F0010A03E1030EDF6E04D088
:10126000020EDF6E0001BE6BDF50E55222D02ED899
:10127000FD0EDBCF02F0FE0EDBCF03F0BCC025F08D
:1012800000EC04F023C004F024C005F025C006F0F3
:1012900026C007F012D800C023F001C024F002C01D
:1012A00025F003C026F01200D9CFE6FFE1CFD9FF29
:1012B0001200E552E7CFD9FF120023C028F024C066
:1012C00029F025C02AF026C02BF01200FB0EDBCF40
:0A12D00000F0FC0EDBCF01F012006D
:0612DA0003D9FAD807E079
:1012E000ACA2FED7F6D8AD6E010EF36E01D0F36A54
:1012F000F46AFCD0F6D8ACA2FED7FD0EDB50AD6E82
:10130000F5D0ACA2FED70A0EAD6EACA2FED70D0E84
:10131000AD6E1200E6D8FD0EDBCFE6FFFE0EDBCF92
:10132000E6FFDBDFE552E552F3CF00F0F4CF01F04A
:10133000F350F41006E0FD0EDB2AFE0EECE3DB2A90
:10134000EAD7DFDFD3D09F8AD08E9592959483928F
:101350008394949C948EAC98AC84AC8A400EAF6E0F
:10136000AB8EAB889D8AF28EF28C1200EE0EABD85B
:101370000001BD51A8D8ED0E63EF0AF00001FB2B70
:10138000000EFC239CD8FE0E001805E1015003E17D
:101390000001B86B84D093D8FD0E001802E1015013
:1013A00070E08DD8F40E001806E1015004E1B20E91
:1013B000F96F000E69D083D8F30E001802E10150D6
:1013C00060E07DD8FC0E001806E1015004E1B40E87
:1013D000F96F000E59D073D8FB0E001802E10150CE
:1013E00050E06DD8FA0E001806E1015004E1B50E88
:1013F000F96F000E49D063D8F90E001802E10150D0
:1014000040E05DD8F80E001806E1015004E1B90E85
:10141000F96F000E39D053D8F70E001802E10150D1
:1014200030E04DD8F60E001806E1015004E1B70E89
:10143000F96F000E29D043D8F50E001802E10150D3
:1014400020E03DD8F20E001806E1015004E1BA0E8A
:10145000F96F000E19D033D8F10E001802E10150D7
:1014600010E02DD8F00E001806E1015004E1BB0E8B
:10147000F96F000E09D023D8EF0E001807E10150D4
:1014800005E1800EF96F000EFA6F09D0AE50F9C079
:10149000E9FFFAC0EAFFEF6EF92B000EFA230D0EFA
:1014A000AE5C07E0B20E0001F91908E1000EFA196E
:1014B00005E10001800EF96F000EFA6F1200AE50C8
:1014C000006E016A1200E66EE66A14DFE552E5522C
:1014D0001200FD0EDBCFE9FFFE0EDBCFEAFFEF507F
:1014E0001200D9CFE6FFE1CFD9FF1200E552E7CFD6
:0414F000D9FF12000E
:0C14F4008BEC00F040EC0BF0A3EC09F0D6
:101500001FEC07F06AEC00F00001B2510FE100019E
:10151000BA51E66EE66A0001B951E66EE66A4FEC32
:1015200002F0E552E552E552E552EED7020E000117
:10153000B25D27E164EC07F00001020ECB19F6E181
:10154000CC51F4E116EC07F022C000F023C001F00A
:1015500024C002F025C003F022C0E6FF23C0E6FF4E
:1015600024C0E6FF25C0E6FF050EE66EE66ADCEC69
:1015700001F0046E060EE15E04500001C76BC86BFB
:10158000D5D7030E0001B25DBFE164EC07F00001A6
:10159000010EC919F6E1CA51F4E10AEC07F001089D
:1015A00004E1280EBE6E320E07D00AEC07F00308E5
:1015B00005E1320EBE6E280EBB6E0FD00AEC07F0AE
:1015C00000090BE1800EE66EE66AE66EE66A23EC41
:1015D00001F0E552E552E552E5520001C96BCA6BD4
:0215E000D0D762
:0E15E200E40EF66E000EF76E000EF86E0101BC
:1015F0000900F550116F0900F550126F03E11167F2
:1016000001D03DD00900F5500C6F0900F5500D6F69
:101610000900F5500E6F09000900F550E96E090048
:10162000F550EA6E090009000900F5500F6F090036
:10163000F550106F09000900F6CF13F1F7CF14F140
:10164000F8CF15F10CC1F6FF0DC1F7FF0EC1F8FF81
:1016500001010F5302E1105307E00900F550EE6E4F
:101660000F07F8E21007F9D713C1F6FF14C1F7FF0F
:1016700015C1F8FF01011107000E125BBFD7120060
:10168000C70ED56E010EC26EC16A380EC014C06E90
:10169000F2A4FED71200C2829EACFED7C450120044
:1016A000D9CFE6FFE1CFD9FFC30EC214C26EFD0E43
:1016B000DBCF02F0FE0EDBCF03F0D890023603360C
:1016C000D89002360336C2500210E850C26EE5527E
:0616D000E7CFD9FF120074
:0A16D600216A206A1F6A1E6A200EB6
:1016E000E76ED89022362336243625361E361F362E
:1016F0002036213627501E5C28501F58295020586C
:101700002A50215809E327501E5E28501F5A29509D
:0E171000205A2A50215A222AE72EE4D712002E
:02171E00216A3E
:10172000206A100EE76ED8902436253620362136F2
:101730002950205C2A50215805E32950205E2A5068
:0A174000215A242AE72EF0D71200E8
:06174A00000EF36E00EE3C
:1017500000F0060E01D81200EA6002D0EE6AFCD753
:0A176000F350E9601200EE6AFCD7B6
:06176A0015EE00F025EE73
:1017700000F0F86A1D9CF1EC0AF003EC00F07AEC42
:061780000AF0FBD7120085
:0A178600216A080EE76ED8902536A0
:1017900021362A50215C02E3216E252AE72EF7D755
:0217A000120035
:0C17A2000000030000000300040005002C
:0217AE00000039
:1017B0000000000000000000000000000000000029
:1017C00000000000000000000000005C8FC23D31FE
:0317D00008AC3C26
:0D17D30030000000000000000000000000D9
:1017E00000000000000000000000000000000000F9
:1017F00000000000000000000000000000000000E9
:1018000000000000000364640A0201008080010FF0
:0118100000D7
:020000040030CA
:0100010002FC
:0100020018E5
:010003001EDE
:010005008179
:010006008079
:010008000FE8
:01000900C036
:01000A000FE6
:01000B00E014
:01000C000FE4
:01000D0040B2
:00000001FF
